:020000040800F2
:1000000088060020010300083F03000841030008A0
:1000100043030008450300084703000800000000F0
:10002000000000000000000000000000490300087C
:100030004B030008000000004D0300084F030008B8
:100040005103000851030008510300085103000840
:100050005103000851030008510300085103000830
:100060005103000851030008510300088D150008D2
:100070005103000851030008510300085103000810
:100080005103000851030008510300085103000800
:1000900051030008510300085103000851030008F0
:1000A00051030008510300085103000851030008E0
:1000B0005103000851030008C1150008510300084E
:1000C00051030008510300085103000851030008C0
:1000D0005103000851030008E91700085103000804
:1000E00051030008510300085103000851030008A0
:1000F0005103000851030008510300085103000890
:10010000510300085103000851030008510300087F
:10011000510300085103000851030008510300086F
:10012000510300085103000851030008510300085F
:10013000510300085103000851030008510300084F
:10014000510300085103000851030008510300083F
:10015000510300085103000851030008510300082F
:10016000510300085103000851030008510300081F
:10017000510300085103000851030008000000006B
:10018000510300085103000800F002F800F0A8F83D
:1001900014A696E8000CB244B344DA4501D100F04D
:1001A0009FF8BAE80F000FA696E83000A5EB04050B
:1001B00004EB0607AAEB0704A7F101074FEA1515A0
:1001C0004FEA3414A4F10104AC4201D300F088F8E2
:1001D00013F0010F18BFFB1A43F0010300F001F800
:1001E000DBE71847142D0000342D0000103A24BF1F
:1001F00078C878C1FAD8520724BF30C830C144BF8C
:1002000004680C6070470000704700000023002461
:1002100000250026103A28BF78C1FBD8520728BF16
:1002200030C148BF0B6070476E2900F0AB81702968
:1002300000F0F182662902F07885652902F0758563
:10024000672902F07285612902F0718503681B0A33
:1002500028BF41F08001692900F05881642900F02D
:100260005581752900F052816F2900F07F8278292D
:1002700000F0BD82E92900F01982E42900F016821D
:10028000F52900F01382EF2900F07C82F82900F0B4
:10029000BC820368DB0928BF41F08001632900F0BC
:1002A000F887732900F0FD87E32901F00880F3291E
:1002B00001F00D80002070471FB502F024FD01F011
:1002C0005BF804000020002102F00CFA401C606082
:1002D0000020002102F0F0F9E0601FBD10B510BD54
:1002E00001F01DF81146FFF7E7FF01F01DFD01F0D9
:1002F000F9F803B4FFF7F2FF03BC01F03FF9000087
:1003000017481849184B99423CBF50F8042B41F844
:10031000042BF8D3154B16494FF000028B4238BF1F
:1003200043F8042BFAD3DFF84C00016841F4700164
:100330000160BFF34F8FBFF36F8F0F480047FEE799
:10034000FEE7FEE7FEE7FEE7FEE7FEE7FEE7FEE785
:10035000FEE7000009480A490A4A0B4B70470000B3
:10036000483000080000002008000020080000209D
:100370008806002088ED00E0890100088800002040
:100380008806002088020020880200200FB41CB5D7
:10039000084B06AA7B4469460090059800F00BF9CB
:1003A00004460020694600F019F920461CBC5DF89F
:1003B00014FB000045020000032A40F2308010F0D8
:1003C000030C00F0158011F8013BBCF1020F6244F0
:1003D00098BF11F801CB00F8013B38BF11F8013B81
:1003E000A2F1040298BF00F801CB38BF00F8013B2E
:1003F00011F0030300F0E182083AC0F0088051F8E0
:10040000043B083A51F804CBA0E80810F5E7121DA8
:100410005CBF51F8043B40F8043BAFF30080D207C7
:1004200024BF11F8013B11F801CB48BF11F8012B93
:1004300024BF00F8013B00F801CB48BF00F8012BB6
:10044000704770477047704770B50446856900680B
:10045000C10601D5302600E02026C00707D070BDB8
:10046000D4E9012130469047206A401C20626D1E6D
:10047000F6D570BD70B5044685690078C00707D110
:1004800070BDD4E9012120209047206A401C2062E1
:100490006D1EF6D570BD09684A0501D540B270479A
:1004A000C905FCD500B2704709684A0501D5C0B23C
:1004B0007047C905FCD580B2704770B50C4605463B
:1004C000012A05D02878800600D5EA69002302E0D9
:1004D000012305E05B1C934202D2E05C0028F9D1C5
:1004E000A869E618C01AA861286A18442862284634
:1004F000FFF7AAFF04E0D5E9012114F8010B9047AA
:10050000B442F8D32846FFF7B5FF70BD2DE9F0419E
:100510000646002410687529314616A510D0FFF74D
:10052000BAFF002802DA404213A507E031688A07C3
:1005300001D512A502E0490704D511A5012401E067
:10054000FFF7B2FF00210A2206F1240709E0B0FB01
:10055000F2FCB0FBF2F302FB1C003030785418467A
:10056000491C0028F3D123462A463046BDE8F04115
:1005700000F09ABA000000002D0000002B000000DF
:100580002000000011680268006A530501D5087058
:100590000AE0D30501D5088006E0130603D5C2178B
:1005A000C1E9000200E008600120704701694A1CAF
:1005B00002610878704700B58FB0CDE901310021A4
:1005C000059105497944CDE903101146684600F0CC
:1005D0002DF90FB000BD0000E5FFFFFF0A6802F82B
:1005E000010B0A60704700002DE9FF5F15468A463F
:1005F0000446DFF8AC80F8440027D8E900103E46F6
:10060000CDE9001010E03AF816106A4602A800F092
:1006100062FE411C07D02178890603D5E2693918AA
:1006200091420DD80744761C2078800602D5E069F7
:10063000B84205DDAE42E6DB3AF816000028E2D10A
:10064000A069C01BA0612046FFF7FEFED8E900109C
:10065000CDE90010002017E03AF818106A4602A809
:1006600000F039FEB0F1FF3F81460BD000250DF1BF
:10067000080B05E0D4E901211BF8050090476D1C2B
:100680004D45F7D308F10100B0428046E4DB206A13
:10069000384420622046FFF7EDFE00F003B800006A
:1006A0003A2700003FBCBDE8C09F00002DE9F041A3
:1006B0008046D21D22F007020025D2E90002F5296A
:1006C00015A614D0011E72F1000106DA0023D0EB4A
:1006D000030063EB020211A608E0D8F800108B07B4
:1006E00001D50FA602E0490701D50EA60125114646
:1006F000002408F1240704E000F091F930323A5563
:10070000641C50EA0102F7D12B463246214640468E
:10071000BDE8F04100F0C8B9000000002D00000065
:100720002B0000002000000030B4002100F1240460
:1007300008E002F00705D208303542EA4372DB08D0
:100740006554491C52EA0305F3D10468002310A242
:10075000250708D504F020040C4304D0C469012304
:100760000CA2641EC46130BC00F09EB910B50446F2
:1007700021461068FFF798FE02462046BDE810406B
:100780000023D1E7D21D22F00701D1E90023CBE7F6
:100790000000000030000000F0B40D46018809059B
:1007A00002D5214C7C4402E01F4C7C440E340021D5
:1007B00000F1240608E002F00F071209E75D42EAA3
:1007C00003721B097754491C52EA0307F3D10278DC
:1007D0000023120704D5702D06D009B1022311346D
:1007E0002246F0BC00F060B901231034F8E770B580
:1007F00004460D4621461068FFF756FE024629467C
:100800002046BDE870400023C6E7D21D22F0070352
:10081000D3E90023C0E70368126843F020030360B4
:100820000823C3610023B7E7942500002DE9F05F9A
:10083000894604464FF0000ADFF874B1FB44C0F863
:1008400020A02046E1688847002874D0252806D0DB
:10085000D4E901219047206A401C2062F1E700267C
:100860005F462046E16888472028054607DB312D92
:1008700005D2781910F8200C08B10643F1E7B0074B
:1008800001D526F00406C4F81CA00027C4F818A05F
:100890002A2D09D0284601F007FF38B304EB87085A
:1008A000303DC8F8185019E059F8041B204604EBF5
:1008B00087029161E1688847012F054618D1E069F8
:1008C000002820DA26F020061DE0D8F8180000EBFA
:1008D000800005EB40003038C8F818002046E16879
:1008E0008847054601F0E0FE0028EED1012F0AD02E
:1008F0002E2D08D12046E16888477F1C0546022F2F
:1009000046F02006C4DBA069002803DA404246F026
:100910000106A061F00701D026F010066C2D0BD067
:10092000682D09D04C2D39D06A2D35D0742D35D095
:100930007A2D33D016E038E0E1682F46204688470C
:10094000B842054609D16C2F26D04FF48060E1688B
:10095000064320468847054604E06C2F1AD04FF422
:10096000807006430DB3A5F14100192802D8203547
:1009700046F400664A462946204626604E46FFF762
:1009800053FC80B101280BD0F61D26F0070000F1C2
:10099000080956E74020E4E78020D8E70020D6E7A2
:1009A00006F104094DE7284652E7206A00F002B834
:1009B0002425000030BCBDE8C09F10B5203AC0F02F
:1009C0000B80B1E81850A0E81850B1E81850A0E822
:1009D0001850203ABFF4F5AF5FEA027C24BFB1E8BB
:1009E0001850A0E8185044BF18C918C0BDE81040FE
:1009F0005FEA827C24BF51F8043B40F8043B08BF07
:100A00007047D20728BF31F8023B48BF11F8012BCD
:100A100028BF20F8023B48BF00F8012B704730B5D3
:100A2000B0F10A0271F100034FEA900E4EEA817EA6
:100A3000B0EB0E0061EB91014FEA101E4EEA017E11
:100A400010EB0E0041EB11114FEA102E4EEA016E31
:100A500010EB0E0041EB11214FEA104E4EEA014E11
:100A600010EB0E0041EB1141401841F100014FEA3B
:100A7000D00040EA41704FEAD1014FEA810444EAD4
:100A8000907410EB800544EB01046D1944EB0404F1
:100A9000521BA3414FF0000348BF0A3200D530BDBE
:100AA000401C41F1000130BD2DE9F0470D4699464B
:100AB0009246044600F124080168880604D5E069DE
:100AC00021F01001216000E00120A84201DD471B58
:100AD00000E00027A1697A1902EB0900081AA06159
:100AE0002078C00602D42046FFF7AEFC002608E0BE
:100AF000D4E901211AF806009047206A401C761CB0
:100B000020624E45F4DB2078C0060AD52046FFF768
:100B10009BFC06E0D4E9012130209047206A401C6C
:100B20002062381EA7F10107F4DC07E0D4E90121B7
:100B300018F805009047206A401C2062281EA5F185
:100B40000105F3DC2046FFF795FC2078000602D56E
:100B50000220BDE8F0870120FBE72DE9FF4F0C469E
:100B60001E464FF0FF378BB0D2E90001DDF8608000
:100B70000A908A46C1F30A5505B93D460021084648
:100B80004FF00000BAF1000F00F4400005DA00EB6E
:100B900080004FF4400101EA50004FEA9059B9F14A
:100BA000010F00DDB9460A9850EA4A000ED044F61B
:100BB0001050A5F2FF3545432F14B8F1000F1ED099
:100BC0007542291E1EDDC9F100021CE0B8F1010FBB
:100BD0004FF0000001D0302103E0F24305E0215442
:100BE000401CB042FBDB30460022002121540B990F
:100BF000C1F80880C1E900200FB000F0BCB9BD1BEE
:100C00006D1CDEE74A4600DA694206A800F0F8FBF0
:100C100006AB93E8070003AB83E8070050460A9948
:100C200001F062F98DE80700A0F500501F38009030
:100C30000398002D0ADD42F21F014A4608440023B2
:100C400003A90390684601F0CBFB09E0A0F5005032
:100C50004A461F38002303A90390684601F0D5FBDC
:100C60008DE807000004000C03D04FF0FF3041086E
:100C700000E01046B8F1000F03D0002200921546A4
:100C80001EE0751E05D4FFF7CAFE303262556D1E98
:100C9000F9D5B3460122084302D000227F1C04E0AC
:100CA0002078302801D100227F1E002A099784D0A5
:100CB0001DE0112D07DAFFF7B2FE303262556D1CD0
:100CC00050EA0102F5D1084302D00098C8B10EE005
:100CD0000021681E05E0235C625C63542254401EC0
:100CE000491C8142F7DBAB46A81B401E099000203F
:100CF00004F80B000B98099AC0F80880C0E9002B93
:100D00007AE711264FF0000857E72DE9F04F8846A3
:100D10000446D21D22F0070191B0D1E90001CDE9CE
:100D20000A0101F0A9FC02460B98C00F01D02D204A
:100D300007E02068810701D52B2002E0202101EA8D
:100D4000C000032A099001D0072A05DB034641466B
:100D5000204600F015FB0BE12078800601D5E06904
:100D600000E00620B8F1650F814606D0B8F1660FA5
:100D700018D0B8F1670F70D131E00020B9F1110F30
:100D8000009001DB112301E009F101030AAA01A986
:100D90000CA8FFF7E2FEDDE90C70002609F1010561
:100DA000834647E001204B4600904FF000470AAAD7
:100DB00001A90CA8FFF7D1FEDDE90DB00C995D4645
:100DC000002610B909F101000D18B9EB050003D494
:100DD000C0F1FF3609F10105A5EB09002BE0B9F1DF
:100DE000010F01DA4FF001090020B9F1110F009055
:100DF000484601DD112300E003460AAA01A90CA818
:100E0000FFF7ABFEDDE90C704D46002683462078E7
:100E100000070AD4AB4500DA5D4601A8012D04DDC8
:100E2000411911F8011C302907D04F4502DA17F19A
:100E3000040F04DA012082460FE06D1EEEE7002F5A
:100E400002DCED1B3E4403E0781CA84200DD7D1C63
:100E5000B81B00F1010A4FF000472078000703D4C7
:100E6000AA4501DB4FF0FF3A0021B7F1004F0DF129
:100E700043088DF8431024D002202B23002F01DAE1
:100E80007F422D230A21021EA0F1010000DC5FB188
:100E900097FBF1FC97FBF1F201FB1C7C17460CF170
:100EA000300C08F801CDEEE7A8F1010003702188AD
:100EB000090501D5452100E06521A0F1010800F8F0
:100EC000011C09980FA9A1EB0807FF1D00B1012023
:100ED000411901EBEA70A1693844081A401EA0616B
:100EE0002078C00602D42046FFF7AEFA099828B150
:100EF000D4E901219047206A401C20622078C00676
:100F000022D52046FFF7A0FA1EE0002E04DBB345F1
:100F100002DD01A8805D00E03020D4E90121904786
:100F2000206A401C2062761CAAF101005FEA000AD8
:100F30000AD100F021FAC0680168405CD4E90121BF
:100F40009047206A401C2062281EA5F10105DCDCC8
:100F500007E0D4E9012118F8010B9047206A401CF2
:100F60002062381EA7F10107F3DC2046FFF782FA62
:100F7000032011B041E630BCBDE8C08F2DE9F04F31
:100F800004460D46D21D22F0070089B0D0E9009733
:100F90004846394601F070FB0246F80F01D02D2378
:100FA00007E02068810701D52B2302E0202101EA18
:100FB000C0038DF820300BB1012000E00020032A8F
:100FC000824601D0072A04DB2946204600F0D8F9E2
:100FD0003FE12078800601D40D2500E0E569C7F3E4
:100FE0000A560D2D49DA00214FEA175B08464FF0EB
:100FF0000000002F00F4400007DA00EB80004FF4FF
:10100000400100EBD07001EA60008115012901DD8B
:101010004FF0FF3100224FEA850CBCF1180F06D3C8
:101020001346ACF118004FF08052C24003E04FF479
:10103000801323FA0CF30CF10C0CBCF1200F04D339
:10104000ACF1200C09FA0CF001E007FA0CF00029D1
:101050004FF0004801DD18B90FE00ED140450CD328
:1010600019EB02095F4121B9404502D19F4329EAAA
:101070000209BBEB175F00D0761C2088000502D563
:101080007B48784402E07A487844193808AA30232B
:1010900002F80A30037C0AF10101002E0AF1020A6B
:1010A00053546A4602DC4FF0300101E04FF0310149
:1010B0004FF001088DF8001002D0A6F2FF3603E0D1
:1010C00059EA470100D06B4E002D02DC2178090758
:1010D00004D54FF002082E218DF80110C4460021DE
:1010E0000BE0C7F303433F01C35C491C6D1E02F8CC
:1010F0000830052908F1010801DA002DF1DC002192
:101100000CE000EB1973491C1B786D1E082902F8CE
:1011100008304FEA091908F1010801DA002DF0DC66
:1011200021688B0602D516E0A8F10108E04505DD2F
:1011300002EB080313F8013C302BF5D0B8F1000F97
:1011400009DD02EB080313F8013C2E2B03D109073C
:1011500001D4A8F10108002D05DD3E2102F8081098
:101160006D1E08F10108407C002E02F8080008F10D
:10117000010804DA2D20764202F8080002E02B2054
:1011800002F808000A214FF47A70864208F101083B
:101190000BDB96FBF0F3303302F8083096FBF0F3EC
:1011A00008F1010800FB136601E0642E0CDB6420EB
:1011B00096FBF0F3303302F8083096FBF0F308F1B9
:1011C000010800FB136601E00A2E06DB96FBF1F036
:1011D000303002F8080008F1010896FBF1F001FB3D
:1011E0001060303002F80800A16908F1010808EB2E
:1011F000050202EB0A00081AA0612078C00602D49A
:101200002046FFF721F9216A08AE01EB0A002062AF
:1012100004E0D4E9012116F8010B9047BAF1010A64
:10122000F7D22078C00602D52046FFF70DF96E46AA
:1012300009E016F8010B3E280FD0D4E901219047B0
:10124000206A401C2062B8F10108F2D22046FFF764
:1012500011F909B0032000F00FB8206A2844206279
:1012600003E0D4E90121302090476D1EEBD3F8E76D
:10127000021D000002FCFFFF30BCBDE8C08F10B5AE
:10128000436913B1AFF3008001E0FFF716F90120C5
:1012900010BD127800F124010A7000224A70012268
:1012A000EDE711684FF0FF32E9E710B5436913B17C
:1012B000AFF3008001E0FFF797F9012010BD12881D
:1012C00000F1240182840022C2840122EDE711682A
:1012D0004FF0FF32E9E72DE9F04116460C4605468E
:1012E00000F042F8036893F80101012807D0FF2CB1
:1012F00012D8185D80B101202C70BDE8F081D3F8C0
:1013000007013246214603F20713C7182846BC4698
:10131000BDE8F041002360474FF0FF30EDE7754630
:1013200000F0EAF8AE4605006946534620F0070093
:10133000854618B020B5FFF70DF8BDE820404FF006
:1013400000064FF000074FF000084FF0000BAC46CE
:10135000ACE8C009ACE8C009ACE8C009ACE8C00919
:1013600021F007018D46704710B500F005F8001D0B
:1013700010BD00BF71130000004870472800002016
:101380002DE9F0411F46044603260168072A01F4AF
:10139000006004DB08B116A505E016A503E008B15E
:1013A00015A500E015A521F010002060A069C01E61
:1013B000A0610FB1401EA0612046FFF745F84FB174
:1013C000D4E9012138469047206A401C2062C01CA5
:1013D000206206E0206AFAE7D4E9012115F8010B42
:1013E0009047761EF8D22046FFF744F8BDE8F0811A
:1013F0004E414E006E616E00494E4600696E6600B9
:101400002DE9F047814616468AB0354878440DC824
:101410008DE80D0032487844801C03AC0DC884E888
:101420000D0041F69B300844372190FBF1F290FB10
:10143000F1F5A5F1800501FB12041B3C02D56442C5
:10144000012000E00020DFF898A080460027FA4441
:10145000AAF1BE0A0EE0E0070AD03246684607EB62
:10146000470101230AEB810100F0CFFF8DE807005F
:1014700064107F1C002CEED1194F7F44AE3F19E061
:10148000E80715D007EB04100DF1180A90E80E00DC
:101490008AE80E00C068F04201D1981908903246DF
:1014A000012306A903A800F0B0FF03AB83E80700FF
:1014B0006D10641C002DE3D14FF0010332466946E4
:1014C000B8F1000F03A802D000F08AFF01E000F09D
:1014D0009CFFC9E90001C9F808200AB0BDE8F087FF
:1014E000081A000010B50446AFF300802046BDE89E
:1014F0001040FEF7FEBE00000048704708000020C4
:1015000030B44FF0013C50F8042B51F8043BCCFAB6
:1015100052F4D51A20D1FCB950F8042B51F8043BF1
:10152000CCFA52F4D51A17D1B4B950F8042B51F8AB
:10153000043BCCFA52F4D51A0ED16CB950F8042BF6
:1015400051F8043BCCFA52F4D51A05D1002CDAD06C
:1015500030BC4FF00000704729BAB1FA81F111F0A8
:101560001801D1F120008440F2D1CA40CB4012F0E2
:10157000FF0213F0FF0330BCD01A70470149182056
:10158000ABBEFEE726000200704700000020C4F258
:1015900002000068800700280FD5FFE70421C4F28D
:1015A0000201086840F0020008600821C4F202014C
:1015B000086820F001000860FFE7704700000000A5
:1015C00080B584B040F61000C4F2000000688007C7
:1015D000002840F19C80FFE740F21040C4F6000074
:1015E0000068400600280BD5FFE740F63400C4F23F
:1015F0000000006840F28001C2F20001086085E04E
:1016000040F21040C4F600000068400600287CD478
:10161000FFE740F63400C4F20000016840F26C00BD
:10162000C2F20000016090ED000AB8EE400A40F2FC
:101630008000C2F2000090ED001AB8EE411A30EEC0
:10164000411A40F26800C2F20000039090ED000AD7
:10165000B8EE400A9FED422A20EE020A30EE010A5F
:1016600010EE100A01F0DEFA41EC100B51EC100BF9
:101670009FED350B53EC102B01F0D6F941EC100B1C
:101680008DED000B40F20000C2F20000006801F096
:10169000C9FA9DED001B41EC100B51EC110B53EC02
:1016A000102B01F067F841EC100B51EC100B01F01E
:1016B0002FF8014640F27800C2F200000160006895
:1016C00001F0B0FA41EC100B9FED211B53EC112BF4
:1016D00051EC100B01F0A8F941EC100B51EC100B80
:1016E0009FED1D0B53EC102B01F044F841EC100B57
:1016F00051EC100B01F00CF8039940F27402C2F2A5
:101700000002106000200860FFE7FFE718E040F6E5
:101710001000C4F200000068C00780B1FFE740F28B
:101720006801C2F2000108680130086040F610014B
:10173000C4F20001086820F001000860FFE7FFE73D
:1017400004B080BD00BF00BF0000000080842E41B7
:10175000006F8104C58FA13F000000000000004021
:101760000000FA4341F25801C4F20201086840F057
:101770000800086040F60041C4F20001086820F04B
:101780007000086040F62842C4F200020320106096
:1017900040F62C42C4F2000244F61F60106040F68E
:1017A0001842C4F20002106820F440701060106803
:1017B00020F470401060106840F4C040106040F6A3
:1017C0002043C4F20003186840F010001860086855
:1017D00040F001000860106840F400601060086884
:1017E00040F080000860704780B58EB000200C90FB
:1017F00042F6C661C0F6000107A81422FEF7DCFD20
:1018000042F6DA61C0F6000168461C22FEF7D4FDFC
:1018100044F21C40C4F2000000688006002852D543
:10182000FFE744F22440C4F2000000888DF837003E
:10183000FFE744F21C40C4F20000006800060028E4
:1018400001D4FFE7F5E79DF8370044F22841C4F2E0
:101850000001088044F22440C4F2000000883128CE
:101860000FD1FFE74FF08041086840F001000860A9
:1018700040F60001C4F20001086840F00100086071
:1018800020E044F22440C4F200000088322814D141
:10189000FFE74FF08041086820F00100086040F643
:1018A0000001C4F20001086820F00100086000F0A7
:1018B0000BFB07A800F0E6FA03E0684600F0E2FA46
:1018C000FFE7FFE7FFE70EB080BD000080B541F203
:1018D0005801C4F20201086840F40030086000F0CA
:1018E00007F844F20040C4F2000000F01FF880BD89
:1018F00041F24C01C4F20201086840F001000860A6
:101900004FF09041086820F0F0000860086840F04F
:10191000A00008602021C4F60001086820F47F4080
:101920000860086840F4EE400860704780B582B0F7
:1019300001900199086820F0010008600199086889
:1019400020F0102008600199486820F44050486059
:101950000199086820F400400860019940F2A11044
:10196000C8600199086840F00C0008600199086897
:1019700040F020000860262000F038F8019908683F
:1019800040F001000860FFE70198C069800200286C
:1019900001D4FFE7F8E7FFE70198C069400200289B
:1019A00001D4FFE7F8E702B080BD000040F63841FF
:1019B000C4F2000140F2DC500860704781B08DF83D
:1019C00003009DF9030000280ED4FFE79DF90310E2
:1019D00001F01F02012090404A094EF20011CEF2A0
:1019E000000141F82200FFE701B0704781B08DF897
:1019F00003009DF9030000280ED4FFE79DF90310B2
:101A000001F01F02012090404A094EF20011CEF26F
:101A1000000141F82200FFE701B0704741F24C019C
:101A2000C4F20201086840F0010008604FF09041E4
:101A3000086820F440600860086840F4806008602E
:101A40000421C4F60001086820F0200008600C2181
:101A5000C4F60001086820F4406008607047000088
:101A600041F24C01C4F20201086840F00100086034
:101A70004FF09041086820F00C000860086840F0C2
:101A8000080008600421C4F60001086820F0020084
:101A900008600C21C4F60001086820F00C00086002
:101AA0002021C4F60001086820F0F00008600868F2
:101AB00040F020000860704741F24C01C4F202017E
:101AC000086840F00200086040F20041C4F60001DE
:101AD000086820F440100860086840F400100860AE
:101AE00040F22441C4F60001086820F470600860E8
:101AF000086840F48070086040F20441C4F60001B8
:101B0000086820F48060086040F20C41C4F60001CF
:101B1000086820F4401008607047000041F24C0152
:101B2000C4F20201086840F00200086040F200417F
:101B3000C4F60001086820F440500860086840F4CA
:101B40000050086040F22041C4F60001086820F00F
:101B500070600860086840F000700860704700001E
:101B600041F25801C4F20201086840F00100086027
:101B70004FF08041086820F0700008602822C4F20D
:101B80000002092010602C22C4F2000227201060FD
:101B90003C22C4F20002042010601C22C4F20002A5
:101BA000106820F003001060106820F070001060D2
:101BB000106840F0600010602023C4F20003186831
:101BC00040F480701860086840F0010008601068F8
:101BD00040F008001060086840F08000086070471E
:101BE00080B582B041F25801C4F20201086840F0A9
:101BF0000400086040F60001C4F200010191086889
:101C000020F01000086040F62801C4F2000140F204
:101C10008F10086040F62C01C4F2000140F2F3106E
:101C2000086040F61801C4F20001086820F00300C3
:101C30000860086840F001000860086820F0F000C3
:101C40000860086820F00800086040F62001C4F22F
:101C50000001086820F00B000860086840F00A00E6
:101C60000860086840F00100086040F60C01C4F20A
:101C70000001086840F0430008601E20FFF79EFE48
:101C80000199086840F00100086002B080BD0000C2
:101C900082B0019000200090FFE7009801998842EF
:101CA00005DCFFE7FFE7009801300090F5E702B0A0
:101CB0007047000080B58AB046F26350C0F23A0027
:101CC000099047F27340C6F66160089040F60A50EA
:101CD000C6F64410079000200190039007A800F07A
:101CE000D1F80198039040F27400C2F2000000683D
:101CF00000F098FF41EC100B53EC102B42F6BF6143
:101D0000C0F600010DF112000290FEF73FFB0298B1
:101D100000F0B8F80AB080BD40F27400C2F20000D2
:101D200090ED000A7047000080B5ACB00020039031
:101D30002B9042F65961C0F600010DF14600049067
:101D40006622FEF739FB42F64461C0F600010DF150
:101D500031001522FEF730FB42F63061C0F600017B
:101D60000DF11D001422FEF727FB03980690FFF7E4
:101D700055FEFFF7A1FEFFF7D1FEFFF731FFFFF79A
:101D8000EFFEFFF7A3FD049800F07CF8FFF768FE74
:101D9000FFF7E8FCFFE744F22440C4F200000088AB
:101DA000312809D1FFE700F097F848F2A060C0F2AF
:101DB0000100FFF76DFFFFE7FFF7AEFF8DED050AAE
:101DC0009DED050AB2EE021AB4EE410AF1EE10FAE8
:101DD00046DCFFE7059840F27001C2F2000108609E
:101DE00000F048F84AF22010C0F207000190FFF717
:101DF0004FFFFFF75FFFFFF78FFF40F28400C2F253
:101E0000000080ED000AFFF7D1FD0198FFF740FFC9
:101E100000F028F80198FFF73BFFFFF74BFFFFF7B3
:101E20007BFF40F27C00C2F20000029080ED000ACD
:101E3000FFF7BCFD02989DED050A90ED001AB4EE87
:101E4000410AF1EE10FA05DBFFE70DF1310000F079
:101E500019F804E00DF11D0000F014F8FFE700E0B0
:101E6000FFE798E740F63841C4F200014FF4FA600A
:101E70000860704740F63841C4F200014FF47A70B0
:101E80000860704782B0019000200090FFE7019841
:101E90000099405CB0B1FFE7FFE744F21C40C4F298
:101EA000000000680006002801D4FFE7F5E701986C
:101EB00000994A1C0092405C44F22841C4F200019F
:101EC0000880E4E702B070471421C4F600010868F6
:101ED00020F02000086070471421C4F60001086853
:101EE00040F02000086070475FEA400C08BF91F0A6
:101EF000000F4FEA8C234FEAC12243EA51514FEAC7
:101F00001C5018BF00F5F0404FEA300018BF41F0F8
:101F100000415FEA6C5C00F02980BCF1FF3F08BF24
:101F200040F080407047130C06BF12044FF0100CB5
:101F30004FF0000C130E04BF12020CF1080C130F2B
:101F400004BF12010CF1040C930F04BF92000CF1BA
:101F5000020CD30F04BF52000CF1010C11464FF0DC
:101F60000002A0F11F00A0EB0C00704711F0004F21
:101F700008BF704731F000413FF4D5AF0B0C06BFEE
:101F800009044FF0100C4FF0000C0B0E04BF0902B7
:101F90000CF1080C0B0F04BF09010CF1040C8B0FA2
:101FA00004BF89000CF1020CCB0F04BF49000CF1F7
:101FB000010CCCF1200322FA03F341EA030102FAF7
:101FC0000CF2A0EB0C0000F10100704723F07F47FA
:101FD00020F07F4C80EA030000F00040ACEB0703E8
:101FE00003F57C5303F1FF032DE9804909B44FEA5F
:101FF000144324EA03484FEA154B25EA0B4E0FF22F
:10200000042606EB13273E7803FB0667C7F5000797
:1020100007FB06F64FEAD64606F102064FEA5437AA
:1020200007FB066CCCF1005C4FEA1C472CEA074C1E
:102030000CFB06F507FB06F404EB15464FEA961673
:1020400049085FEA320234BF00204FF000404FEAF7
:10205000D13706FB07FC4FEA1C4C0CFB0BF7D21BDD
:1020600003FB0CF761EB07010CFB0EF7B0EB07402D
:1020700072EB17420CFB08F734BFA2EB0742B2EB3E
:10208000074261EB17414FEA0C444FEA910706FB08
:1020900007FC4FEA1C4C0CFB0BF7B0EBC74072EB94
:1020A000573203FB0CF734BFA2EBC742B2EBC74277
:1020B00061EB57310CFB0EF7B0EBC70072EB5772B8
:1020C0000CFB08F734BFA2EBC702B2EBC70261EB0F
:1020D00057714FEA816141EA92114FEA826242EA06
:1020E00090124FEA806004EBCC04039F4FEAD13793
:1020F00006FB07FC4FEA1C4C0CFB0BF7D21B03FB47
:102100000CF761EB07010CFB0EF7B0EB074072EB2D
:1021100017420CFB08F734BFA2EB0742B2EB0742B1
:1021200061EB17414FEA8C5504EB9C244FEA910771
:1021300006FB07FC4FEA1C4C0CFB0BF7B0EBC7404F
:1021400072EB573203FB0CF734BFA2EBC742B2EB82
:10215000C74261EB57310CFB0EF7B0EBC70072EBD7
:1021600057720CFB08F734BFA2EBC702B2EBC702F1
:1021700061EB57714FEA816141EA92114FEA826245
:1021800042EA90124FEA806015EB4C2544F10004BE
:102190004FEAD13706FB07FC4FEA1C4C0CFB0BF750
:1021A000D21B03FB0CF761EB07010CFB0EF7B0EB46
:1021B000074072EB17420CFB08F734BFA2EB074253
:1021C000B2EB074261EB17414FEA813141EA92419C
:1021D0004FEA823242EA90424FEA80304FEA0C7670
:1021E00015EB1C1544F1000448EA03434EEA0B4882
:1021F0004FF0000EB2EB080C71EB030724BF6246F0
:1022000039464EEB0E0E4FF0000B0018524149417B
:102210004BEB0B0BB2EB080C71EB03077BF1000BE4
:1022200024BF624639464EEB0E0E4FF0000B0018ED
:10223000524149414BEB0B0BB2EB080C71EB03071E
:102240007BF1000B24BF624639464EEB0E0E51EA7D
:10225000020718BF46F0010616EB0E7655F1000294
:1022600054F1000103D5BDE88901BDE80088BDE84F
:102270008901BDE80048B619524141EB0101A3F1C3
:102280000103704780807F7E7D7C7B7A79787776CA
:1022900076757473727171706F6E6E6D6C6C6B6A43
:1022A0006A696868676666656464636362616160E1
:1022B000605F5F5E5E5D5D5C5C5B5B5A5A5959585E
:1022C00058575756565555555454535352525251C8
:1022D000515050504F4F4F4E4E4D4D4D4C4C4C4B1E
:1022E0004B4B4A4A4A494949484848474747474665
:1022F00046464545454444444443434343424242A1
:10230000424141419C46002B30D477002BD04FEA0C
:1023100037071CB503B44FF010004FF01001BAF1AD
:10232000000F06D0BCF1000FDCBF40F0080040F009
:1023300008014FF000000FBCBDE810400BF1010B8D
:10234000BBF1010F08BF5FEA170722BF12F10102BC
:1023500011F101014FF0004143F1000300F0004092
:1023600043EA00007047F9D35708D0E746EA06462B
:102370004FEA164613F1400F1FDD13F1200FDFBFA8
:1023800016430A46002120335B42BED0C3F120072A
:1023900046EA06464FEA164602FA07F746EA0706F5
:1023A00022FA03F2C3F1200701FA07F742EA070213
:1023B00021FA03F14FF00003A7E746EA020646EAD6
:1023C00006464FEA164646EA0106BCBF46EA0646FE
:1023D000360C4FF000034FF000024FF0000194E77D
:1023E0002DE9804C70B49A46934691E8380007C8AE
:1023F00031EA400C48BF34EA430C03D5FFF7E6FD51
:10240000FFF780FFF0BCBDE8008C2DE9804C70B474
:102410009A46934691E8380007C810F0804F08BFED
:1024200013F0804F03D100F005F8FFF76BFFF0BC0D
:10243000BDE8008C20F07F4723F07F4C80EA03004A
:1024400000F0004007EB0C03A3F57C53A3F1FE035F
:1024500092F0000F00F0B38095F0000F00F077804D
:102460002DE901494FEA114021EA00484FEA14469C
:1024700024EA064700FB06FC08FB06F607FB08F803
:1024800018EB06484CEB164C00FB07F718EB074817
:102490004CEB17404FEA124B22EA0B4E4FEA15461F
:1024A00025EA06470BFB06FC0EFB06F607FB0EFEB5
:1024B0001EEB064E4CEB164C0BFB07F71EEB074EC4
:1024C0004CEB174B18EB0B0840F1000018EB0E0B10
:1024D00058EB000840F100008F1A4FF000014FF058
:1024E00000063CBFC943661B14BFB5EB040C0021BA
:1024F0003CBFC943F61B4FEA174427EA04454FEA9D
:102500001C472CEA074C04FB076205FB07F70CFB92
:1025100005F616EB074642EB174204FB0CFC16EBE4
:102520000C4642EB1C421BEB060658EB02024141F3
:102530004EEA8E0E46EA9E0601D5BDE80189B6191F
:10254000524141EB0101A3F10103BDE801894FEACA
:10255000144524EA05464FEA114721EA074C05FBDA
:1025600007F406FB07F70CFB06F111EB074144EB00
:10257000174405FB0CFC11EB0C4144EB1C444FEAE7
:10258000124722EA074C05FB07F206FB07F70CFB94
:1025900006F616EB074642EB174205FB0CFC16EB62
:1025A0000C4642EB1C456A1854F1000148BF7047C5
:1025B000B619524141EB0101A3F10103704795F0B7
:1025C000000F37D04FEA114221EA02464FEA144782
:1025D00024EA074C02FB07F106FB07F70CFB06F4A5
:1025E00014EB074441EB174102FB0CFC14EB0C44C9
:1025F00041EB1C414FEA154725EA074C02FB07F562
:1026000006FB07F70CFB06F616EB074645EB1745EE
:1026100002FB0CFC16EB0C4645EB1C42121951F167
:10262000000148BF7047B619524141EB0101A3F1C7
:10263000010370474FEA144524EA05464FEA114763
:1026400021EA074C05FB07F106FB07F70CFB06F236
:1026500012EB074241EB174105FB0CFC12EB0C425D
:1026600051EB1C414FF0000648BF7047921841EBF8
:102670000101A3F10103704703B4019841000098E0
:1026800050EAC12018BF04204A0D18BF40F00100D5
:1026900040F2FF72B2EB515F08BF40F00200012828
:1026A00008BF052002B0704730380A2801D2012047
:1026B000704700207047000010B500290AD0087844
:1026C000002807D005487844FEF71AFF002801D0FB
:1026D000002010BD0248784410BD000052080000E0
:1026E0004A08000010B500290AD00878002807D051
:1026F00005487844FEF704FF002801D0002010BDF3
:102700000248784410BD0000420800003A0800006A
:1027100021F0004201F00043A2F16052B2F5801FA7
:1027200028BFD2F17F6C0BD95FEA001C43EAC202DA
:1027300042EB507018BF704728BF20F0010070476F
:10274000B2F5801FBCBF184670474FEA410C1CF51C
:10275000001F02D2084600F0E3BA70B500F00EFA8E
:1027600000000089FFF7F6BF4FF00040A0F58000A1
:10277000704700002DE9C04130B4DFF8A4C23CEA44
:10278000111418BF3CEA131400F0ED801CEA111478
:1027900081EA030544EAD57418BF1CEA131500F05A
:1027A000C880A4EB050404F17F7404F500344FF0F5
:1027B000004545EAC12145EAC32341EA505143EAB5
:1027C00052534FEAC0204FEAC222994208BF9042BA
:1027D00000F09D804FEA13650FF24416765D4FEAD4
:1027E000134506FB05F7C7F1807706FB07F74FEAAD
:1027F000D737A7FB03687642A7FB06CEC8F580381B
:1028000038BFA8F1010807FB08E6A6FB028C4FF0D1
:10281000000EE6FB03CEDCF1000CCEF1004E38BF1B
:10282000AEF1010EA6FB0C584FF00007E6FB0E8739
:10283000A1FB08C6A0FB07CE16EB0E064FF0000565
:1028400045F10005E1FB076515F1E04E7EBFA4F5FB
:1028500080345FEA46066D4116F1800745F10005B8
:102860004FEA172747EA05674FEA15254FEA06663C
:10287000A6F1DE46B6F1805F20D9384605EBC4717B
:1028800024F0010C01EB0C11BCF1FE6F02D8F0BC7E
:10289000BDE8008124425CBF01F5801E9EEAC47F32
:1028A00002D4F0BCBDE80081244200F13980A1F1DE
:1028B000C041F0BCBDE8004100F0AEB94FEAD02005
:1028C00040EA41504FEAD1214FEAD22242EA435234
:1028D0004FEAD323A7FB028607FB036605FB0266CC
:1028E0001EEA0E0F58BFA6EB0056B6EB00564FEA95
:1028F000520E4EEAC37E18EB0E0E56EB530EBCD5AD
:1029000018EB02085E417F1C55F10005B5E74FF456
:1029100080154FF000074FF000064FF00008ACE7BD
:1029200001F1C04101F000414FF00000F0BCBDE8F2
:1029300000810CEA131511EA0C1F00D00CE013EA19
:102940000C1F00F026804FF0000081EA030101F027
:102950000041F0BCBDE80081F0BCBDE8004181EA67
:10296000030100F059B9F0BCBDE8004170B500F0BA
:1029700005F900BF097EFC3E00F007B84FF00000EB
:1029800081EA030101F00041704781EA030100F090
:1029900043B9F0BCBDE8004122494FF00000704748
:1029A000FFFDFBF9F7F5F4F2F0EEEDEBE9E8E6E414
:1029B000E3E1E0DEDDDBDAD8D7D5D4D3D1D0CFCD9B
:1029C000CCCBCAC8C7C6C5C4C2C1C0BFBEBDBCBBD4
:1029D000BAB9B8B7B6B5B4B3B2B1B0AFAEADACABCF
:1029E000AAA9A8A8A7A6A5A4A3A3A2A1A09F9F9EA9
:1029F0009D9C9C9B9A99999897979695959493935B
:102A0000929191908F8F8E8E8D8C8C8B8B8A8989F1
:102A10008888878786858584848383828281818074
:102A20000000FF070000F87F70B5DFF848C11CEA1E
:102A3000111E1EBF1CEA13159EEA0C0F95EA0C0F1F
:102A400000F06F8081EA03044EEAD47EAE4421EAAE
:102A50004C1123EA4C1341F4801143F48013AEF17E
:102A60007F7EA1FB024CA0FB0365361955EB0C05DC
:102A7000A1FB034C4CF10003A0FB021C16EB0C065F
:102A8000654153F10003094218BF46F0010613F4F3
:102A9000007F0BD14FEA03314FEA053041EA15516F
:102AA00040EA165034036FF003020AE04FEAC321F4
:102AB0004FEAC52041EA555140EA5650F4026FF002
:102AC000020202EB2E4201EB025585EACE710AD0DA
:102AD0005FEA440C18BF24F0004450F1000041F1BB
:102AE000000120EAD47040F2FE7C624500D270BD45
:102AF000A84214BF4FF080444FF04044002E08BF5E
:102B00000024BEF1806FA8BFA1F1C041BDE87040B4
:102B100080F2828001F1C04101F000414FF00000DD
:102B200070470CEA13159EEA0C0F18BF95EA0C0FBC
:102B300006D081EA030E4FF000000EF0004170BD98
:102B400000F01CF88900013E00F007B800F009B859
:102B50004FEA430C5FEA5C5C08D081EA030100F0B5
:102B60005BB84FEA410C5FEA5C5CF6D102494FF07A
:102B7000000070470000FF070000F87F0EF1020E12
:102B80002EF0030E5EF8046B364205D4012A43EBA7
:102B9000030515F5001F12D8012841EB010C1CF5A7
:102BA000001F0CD80ED14FEAD17C0CEB4C0C0CF171
:102BB000020C15F5001F08BF4CEBD37C04E04FF06E
:102BC000080C01E04FEAD37C0CEB4C0526FA05F625
:102BD00006F00706B6F1040C06D20EEB860CBDE833
:102BE00070404CF0010C6047DFE80CF0090B02026A
:102BF0004FF00041A1F500214FF0000070BD1946D3
:102C00001046012851EB010418BFD4F5001484BF0D
:102C1000002001F0004170BD0808A0F500114FEA46
:102C20003101704743004FEAD30C4FEA3C0C43405C
:102C30001FBF40070CF1605113F0FE4F70471CF0AE
:102C4000006F03D10CF00041002070470CF00043EE
:102C500043EA507040EACC0010B500F00EF800BF17
:102C6000000000924FEA0001FFF7D6BF4FF000418D
:102C7000A1F500214FF0000070470EF1020E2EF07A
:102C8000030E5EF8044B244204D44FEA4102B2F131
:102C90007F4F11D84FEA4003B3F17F4F0CD80ED1CC
:102CA0004FEAD07C0CEB4C0C0CF1020CB2F17F4FD4
:102CB00008BF4CEBD17C04E04FF0080C01E04FEA78
:102CC000D17C0CEB4C0324FA03F404F00704B4F1B8
:102CD000040C06D20EEB840CBDE810404CF0010C45
:102CE0006047DFE80CF0070802024FF00040A0F553
:102CF000800010BD0846420018BFD2F1807288BF24
:102D000000F0004010BDF1EE100A4FF6FF71C0F266
:102D1000C03120EA010040F04070E1EE100A704737
:102D2000FF2141EAD050C0057047FDF7EEBFFEF726
:102D300025B90000000000000000000030313233EF
:102D400034353637383941424344454640305800DF
:102D50003031323334353637383961626364656611
:102D6000403078000400000800000000000000026D
:102D700000010000103031323334353637383961D4
:102D800062636465667870003031323334353637CB
:102D90003839414243444546585000000240000043
:102DA000000000A00000000005400000000000C876
:102DB000000000000C4000000000409C00000000EB
:102DC000194000000020BCBE00000000344000009C
:102DD000BFC91B8E00000004B5400000504BCFD08F
:102DE0006607E2CF010000006C4100003E8251AA5C
:102DF000DFEEA73401000000D9420000DCB5A0E2FC
:102E00003A301F97FFFFFFFFB4450000FD25A0C823
:102E1000E9A3C14FFFFFFFFFFF3F0000000000805C
:102E200000000000FF3F00000000008000000000E4
:102E30000A0D5475726E696E67206C6566742E2E6D
:102E40002E0A0D000A0D5475726E696E6720726944
:102E50006768742E2E2E0A0D000A0D57656C636F7D
:102E60006D65212050726573732027312720746FA0
:102E7000207374617274207468652064697374616E
:102E80006E636520646574656374696F6E20616E3E
:102E900064206D6561737572656D656E743B20703D
:102EA000726573732027322720746F2073746F70DC
:102EB000207468652073797374656D2E0A0D002582
:102EC0002E32660A0D000A0D53797374656D205316
:102ED000746F707065642E0A0D000A0D436F6D6D7E
:102EE000616E64206E6F74207265636F676E697ABD
:102EF00065642E0A0D000000483000080000002024
:102F000008000000EC010008503000080800002014
:102F1000800600000C0200081C00000043000000B6
:102F2000F8FFFFFF0C0000000E0000000F00000083
:102F30002E0000001001000043000000F8FFFFFF1A
:102F400000404040404040404040414141414140BC
:102F50004040404040404040404040404040404071
:102F60004005020202020202020202020202020200
:102F70000220202020202020202020020202020205
:102F8000020290909090909010101010101010105D
:102F90001010101010101010101010100202020269
:102FA00002028888888888880808080808080808AD
:102FB00008080808080808080808080802020202A9
:102FC00040000000000000000000000000000000C1
:102FD00000000000000000000000000000000000F1
:102FE00000000000000000000000000000000000E1
:102FF00000000000000000000000000000000000D1
:1030000000000000000000000000000000000000C0
:1030100000000000000000000000000000000000B0
:1030200000000000000000000000000000000000A0
:103030000000000000000000000000000000000090
:10304000000000000000000000401C4600000000DE
:040000050800018965
:00000001FF
